:020000040000FA
:10000000C84600205902000847200008CD1A000801
:1000100045200008E9020008FF2500080000000054
:100020000000000000000000000000009D0100082A
:100030007503000800000000F101000871200008AD
:1000400073020008730200087302000873020008BC
:1000500073020008730200087302000873020008AC
:10006000730200087302000873020008730200089C
:10007000730200087302000873020008730200088C
:10008000730200087302000873020008730200087C
:10009000730200087302000873020008730200086C
:1000A000730200089D2100087302000869210008FE
:1000B000730200087302000873020008730200084C
:1000C000730200087302000873020008730200083C
:1000D000730200087302000873020008730200082C
:1000E000730200087302000873020008730200081C
:1000F00073020008FD210008730200087302000863
:1001000073020008730200087302000873020008FB
:1001100073020008730200087302000873020008EB
:1001200073020008730200087302000873020008DB
:1001300073020008730200087302000873020008CB
:1001400073020008730200087302000873020008BB
:1001500073020008ED020008730200087302000831
:10016000730200087302000873020008730200089B
:100170007302000873020008730200080000000008
:100180007302000873020008DFF80CD000F09AF840
:100190000048004789260008C84600202B4B1968F4
:1001A0000868B0E8F04F80F30988BFF36F8F4FF015
:1001B000000080F3118870470000000006480068C6
:1001C000006880F3088862B661B6BFF34F8FBFF353
:1001D0006F8F00DF00BF00BF08ED00E0DFF80C000C
:1001E000016841F470010160704700BF88ED00E0D4
:1001F000EFF30980BFF36F8F144B1A681EF0100FD6
:1002000008BF20ED108A20E9F04F106008B44FF0CD
:10021000500080F31188BFF34F8FBFF36F8F02F050
:1002200021FE4FF0000080F3118808BC19680868AF
:10023000B0E8F04F1EF0100F08BFB0EC108A80F34A
:100240000988BFF36F8F704700BF00BF0000002018
:10025000EFF30580704700000648804706480047D6
:10026000FEE7FEE7FEE7FEE7FEE7FEE7FEE7FEE766
:10027000FEE7FEE7152100088901000840EA0103B6
:100280009B0703D009E008C9121F08C0042AFAD24C
:1002900003E011F8013B00F8013B521EF9D2704710
:1002A000D2B201E000F8012B491EFBD270470022B8
:1002B000F6E710B513460A4604461946FFF7F0FF65
:1002C000204610BD064C074D06E0E06840F00103F3
:1002D00094E8070098471034AC42F6D3FFF758FF74
:1002E0006C3300088C330008FEE70000014800F082
:1002F00043B800006442002001681823CAB2103AD3
:10030000B2FBF3F2054B6FF30901032A9B5CC36553
:1003100000D9091D81650846704700004433000874
:1003200010B5014600208B698A6A4FF0C07453B142
:10033000B3F5005F15D072B1012A0CD0022A0AD0A1
:10034000032A09D104E01AB1012A06D0022A03D1F6
:10035000C96AC90100D5012010BDC96AA142FAD0FD
:1003600010BD002AF7D0012AF2D0022AF3D0032AC6
:10037000F3D010BD7047FEE72DE9F84304464FF077
:100380000008CDF8008064484FF41651A56D006850
:10039000B0FBF1F72E6894F85C10082000FA01F128
:1003A00031420FD021680A6852070BD50A6822F043
:1003B00004020A6094F85C108840A860606D40F008
:1003C0000100606594F85C1054488840304208D0C1
:1003D00021684969090604D5A860606D40F00200F3
:1003E00060654E4894F85C10C01C8840304208D0CC
:1003F00021680968890704D5A860606D40F0040091
:10040000606594F85C1010208840304218D0216854
:100410000968090714D5A86020680168490304D554
:100420000068000308D5A16C07E00168C90503D482
:10043000016821F008010160216C09B1204688475C
:1004400094F85C102020884030424FF0010631D0F3
:1004500021680968C9062DD5A86094F835000528DB
:100460002068016806D0490347D5006800031DD401
:10047000616C1CE021F0160101602068416921F0E7
:1004800080014161206C08B9A06C20B1206801682E
:1004900021F00801016094F85C103F208840A860BA
:1004A00084F8348084F83560216D1FE0E16B09B178
:1004B00020468847606D00282BD0606DC00714D09F
:1004C000052084F835002068016821F001010160F1
:1004D0000098401C0090B84203D820680068C0070C
:1004E000F6D184F8348084F83560E16C002910D0AE
:1004F00001B02046BDE8F04308470168C905D5D4DE
:10050000016821F01001016084F8348084F83560BE
:10051000CCE7BDE8F88300006C00002001008000FB
:100520002DE9F041044600F045F906465CB100258E
:1005300084F83450022084F835002068016821F0E6
:10054000010101600DE00120BDE8F08100F032F909
:10055000801B052805D920206065032084F835001C
:10056000F2E720680068C007F0D1226811681F48D0
:100570000140D4E901031843D4E903363343184357
:1005800063691843A3691843E3691843236A18434E
:100590000843616A042903D1D4E90B1319430843C2
:1005A000106020684069666A20F0070130460E43FB
:1005B000012704280AD1A06A06432046FFF7B0FEAF
:1005C00020B14020606584F83570BCE72068466142
:1005D0002046FFF791FE94F85C203F219140816016
:1005E000656584F835700020AEE700003F8010F0AC
:1005F0002DE9F84FDFF87CB100224FF001084FF0F1
:10060000030A4FF00F090BF1040E00BF0B6808FA44
:1006100002F42340A3426ED14D68022D01D0122D69
:100620000ED1D50800EB850CDCF820505607F70EEC
:1006300009FA07F6B5430E69BE402E43CCF8206098
:10064000066855000F790AFA05FC07F0030726EA49
:100650000C06AF40374307604E68012E05D0022ECE
:1006600003D0112E01D0122E0ED18668CF6826EA53
:100670000C06AF40374387604668A6430C79C4F345
:100680000014944034434460C6688C6826EA0C0623
:10069000AC403443C4604C68E40065D5364C2568F2
:1006A00045F480452560246822F0030504F4804465
:1006B0000094324C2E19D6F8084895072F0F09FAE6
:1006C00007F5AC432E4DA84201D1002524E02D4D65
:1006D000A84201D101251FE02B4DA84201D10225DE
:1006E0001AE02A4DA84201D1032515E0284DA84261
:1006F00002D1042510E037E0264DA84201D105259E
:100700000AE0254DA84201D1062505E0234DA84267
:1007100001D1072500E00825BD402543C6F808584B
:10072000DBF800405D464E689C43F60300D51C4351
:100730002C60DEF8004075464E689C43B60300D539
:100740001C432C600B4D08352C684E689C43F60208
:1007500000D51C432C60074D0C352C684E689C431B
:10076000B60200D51C432C60521C102AFFF44EAF79
:10077000BDE8F88F003C01404438024000300140A1
:10078000000002400004024000080240000C024049
:10079000001002400014024000180240001C0240F9
:1007A00042694A40426170470AB181617047090459
:1007B000FBE7000001480068704700005C00002073
:1007C00070B5040004D094F83D00002510B106E097
:1007D000012070BD84F83C50204600F005FA24202A
:1007E00084F83D002068016821F00101016000F0FB
:1007F000CBFB33492268B0FBF1F15160314A6368A9
:10080000934206D94FF4967359434FF47A73B1FB70
:10081000F3F12368491C1962616891420BD84900C1
:10082000B0FBF1F2C2F30B02042A01D2042019E05A
:10083000B0FBF1F016E0A3689BB301EBC10202EB41
:100840000112B0FBF2F242F48042120530D04BB3F9
:1008500001EBC10202EB0111B0FBF1F040F480406A
:1008600040F400402168C861D4E9070108432168C9
:100870000860D4E90310084321688860D4E90501C1
:1008800008432168C8602068016841F001010160E7
:100890002564202084F83D00256384F83E50002024
:1008A00070BD00E006E001EB4102B0FBF2F2CCE7E4
:1008B0000120D7E701EB4101B0FBF1F0D0E70000E8
:1008C00040420F00A08601002DE9F84F1F469046D8
:1008D0008A460446DDF82890FFF76CFF054694F839
:1008E0003D0020286FD1192301226E492046009532
:1008F00001F0E1F90028F5D194F83C00012862D01C
:10090000012084F83C0020680168C90703D1016810
:1009100041F0010101602068016821F4006101607B
:10092000222084F83D00102084F83E000026266432
:10093000C4F8248067855C48E062608D20852B4682
:100940004A465146204601F0D6F828B1206C84F87A
:100950003C60042841D04DE0208D544F68B10128FF
:1009600014D002282068016816D041F4806101602B
:10097000206841698069009085E02068416981694B
:100980000091016841F4007101607CE02068016819
:1009900021F480610160F0E721F48061016020684A
:1009A000016841F40061E2E7032849D801280BD02F
:1009B000022817D04B46002239462046009501F008
:1009C0007AF9B8B92AE06AE02A464946204601F099
:1009D000E7F928B1206C20280CD00120BDE8F88F61
:1009E000206845E04B46002239462046009501F03C
:1009F00062F908B10320F1E72068016841F4007151
:100A0000016020680169606A421C62620170208D89
:100A1000401E2085608D401E6085E1E720680168EA
:100A200021F48061016020680169606A421C626291
:100A30000170208D401E2085608D401E6085D1E7AD
:100A40002A464946204601F0ABF90028C2D1206869
:100A50000269606A411C61620270208D401E20851F
:100A6000608D401E608520684169C94349070AD4EA
:100A70000169606A421C62620170208D401E2085FF
:100A8000608D401E6085208D00288DD1202084F847
:100A90003D0084F83E6084F83C6000209EE7022020
:100AA0009CE70000020010000000FFFF04000100AE
:100AB0002DE9F84F1F4690468A460446DDF82890F7
:100AC000FFF778FE064694F83D0020287DD11923D3
:100AD000012243492046009601F0EDF800287CD120
:100AE00094F83C00012878D0012084F83C0020686C
:100AF0000168C90703D1016841F001010160206864
:100B0000016821F400610160212084F83D0010207B
:100B100084F83E0000252564C4F8248067853148A8
:100B2000E062608D208533464A465146204601F0FA
:100B300051F828B1206C84F83C5004284BD00DE0CB
:100B400020684169806900902FE03246494620467E
:100B500001F057F928B1206C042837D00320BDE8F4
:100B6000F88F606A411C6162216800780861608DBD
:100B7000401E6085208D401E208521684869C04345
:100B800040070BD457B1606A421C6262007808616A
:100B9000608D401E6085208D401E2085324649466E
:100BA000204601F061F80028D5D1208D0028CCD155
:100BB00054F83D0B016841F400710160202004F8F5
:100BC0001E09E57765770020C9E706E0206801681F
:100BD00041F4007101600120C1E70220BFE700007D
:100BE000020010000000FFFF00B500680E4987B04A
:100BF000884216D1C020009012200190002002905F
:100C0000032003900420049069460848FFF7F0FC95
:100C10000748016841F400110160006800F4001009
:100C2000059007B000BD00000054004000040240E1
:100C30004038024002480168491C016070470000CA
:100C40005C0000200B4810B5016841F400710160A0
:100C5000016841F480610160016841F480710160C4
:100C6000032000F09BF8002000F006F800F03EF8AA
:100C7000002010BD003C024010B5014688B00022A3
:100C80002D2000F06BF82D2000F05CF813480024B4
:100C9000016841F480710160006805A900F480706A
:100CA0000690684600F04AF900F06EF90C494000E1
:100CB000B0FBF1F10C480B4A491E026040F2E732EA
:100CC000C0E90324C0E9011400F0A5FB10B1012024
:100CD00008B010BD044800F01FFCF9E7403802409E
:100CE00040420F0000200040603D002010B503206E
:100CF00000F054F8002211466FF00B0000F02EF8BF
:100D0000002211466FF00A0000F028F80022114678
:100D10006FF0090000F022F800221146501F00F089
:100D20001DF800221146101F00F018F800220F21B4
:100D3000901E00F013F800220F21BDE81040501E55
:100D400000F00CB800F01F02012191404009800022
:100D500000F1E020C0F8001170470000F0B40E4B25
:100D60001B680C46C3F30223C3F10705042D00D909
:100D70000425191D072901D2002300E0DB1E0126EE
:100D800006FA05F1491E214099409E40761E164004
:100D90003143F0BC01F058B90CED00E0064900F019
:100DA000070208684FF6FF03184040EA0220034A92
:100DB00010430860704700000CED00E00000FA05E9
:100DC0002DE9F047DFF8649105460F46D9F8000099
:100DD00000F00F01F8B28046B94208D2014689F806
:100DE0000010D9F8000000F00F00B84274D1287844
:100DF0004F4C800705D52068A96820F0F000084313
:100E000020602878C00759D0494968680839012806
:100E10001AD002281BD0032819D009688907002995
:100E20005ADA216821F0030101432160FFF7C2FC77
:100E30006968064641F28830012911D002291DD087
:100E40000329824627D035E009688903E7E7096866
:100E50008901E4E7FFF7AEFC811B514501D926E08B
:100E600082462068C0F381000128F3D126E000BF4C
:100E7000FFF7A0FC811B514501D918E0824620688C
:100E8000C0F381000228F3D118E000BFFFF792FC05
:100E9000811B51450BD82068C0F381000328F5D190
:100EA0000CE000BFFFF786FC811B514502D90320EF
:100EB000BDE8F087206810F00C0FF3D1D9F80010CE
:100EC000484601F00F01B94208D980F80080006857
:100ED00000F00F00B84201D00120E9E72878400770
:100EE00005D52068E96820F4E050084320602878A0
:100EF000000706D52068296920F4604040EAC10057
:100F0000206000F059F82168F02292FAA2F201F074
:100F1000F001B2FA82F2D140064A515CC84006495B
:100F200008600020FFF7A8FE0020C1E7003C024057
:100F300008380240343300086C0000200F220260A1
:100F40000C4A136803F003034360136803F0F003D3
:100F50008360136803F4E053C36012684FF4E053F6
:100F600003EAD20202610448006800F00F00086042
:100F70007047000008380240003C02400148006809
:100F8000704700006C0000200848094900680968A3
:100F90004FF4E05292FAA2F201F4E051B2FA82F276
:100FA000D140044A515CC840704700006C000020EA
:100FB000083802403433000830B51948006810F092
:100FC0000C01184812D0184C04290ED008290DD154
:100FD0001349091F0A6802F03F030A68550247F6E1
:100FE000C07204D5B4FBF3F003E0204630BDB0FB83
:100FF000F3F00B680968134092FAA2F2B2FA82F297
:10100000D34058434FF4403292FAA2F201F44031F7
:10101000B2FA82F2D140491C4900B0FBF1F030BD78
:10102000083802400024F40040787D012DE9F84F93
:101030000546DFF8FC920078A9F1040BC007ABF17C
:10104000040449D0D9F800104846C1F381010129B0
:1010500008D00068C0F3810002280AD1DBF8000044
:10106000400206D52068800336D5686800286ED017
:1010700032E06868B0F5803F10D0B0F5A02F20684E
:1010800010D020F480302060206820F48020206080
:101090006868A0B1FFF78EFB06460CE0206840F4BC
:1010A0008030F4E740F480202060F7E7FFF782FB10
:1010B000801B642871D820688003F7D50CE0FFF707
:1010C00079FB064605E000BFFFF774FB801B642830
:1010D000F0D820688003F7D42878964F80074FF027
:1010E000010A4FF0000841D5D9F80010484611F028
:1010F0000C0F08D00068C0F3810002280AD1DBF889
:101100000000400206D42068800713D5E868012853
:101110001DD10FE0E868D8B1C7F800A0FFF74AFB7F
:10112000064604E0FFF746FB801B0228C2D8206871
:101130008007F7D52068F82292FAA2F22969B2FA5C
:1011400082F220F0F8009140084320600EE0ECE0CD
:10115000C7F80080FFF72EFB064604E0FFF72AFBE6
:10116000801B022819D820688007F7D42878000748
:1011700024D57148696989B1C0F800A0FFF71AFB4E
:10118000064604E0FFF716FB801B022805D86848D6
:101190006C3000688007F5D510E07AE0C0F8008078
:1011A000FFF708FB064604E0FFF704FB801B02285C
:1011B0006FD85F486C3000688007F5D42878400706
:1011C00053D55B483830016841F0805101600068B8
:1011D00000F0805000905948016841F4807101602E
:1011E000FFF7E8FA064604E0FFF7E4FA801B02285E
:1011F0004FD852480068C005F6D54D4EA8686836ED
:1012000001280FD00528306810D020F00100306090
:10121000306820F004003060A868B8B1FFF7CAFA5F
:1012200000900FE0306840F00100F4E740F0040067
:101230003060F7E7FFF7BEFA0099411A41F28830B3
:1012400081426AD830688007F4D50EE0FFF7B2FA21
:10125000009007E0FFF7AEFA0099411A41F288309A
:1012600081425AD830688007F4D4A869E8B3D9F825
:101270000010C1F38101022957D00228C7F860800D
:1012800003D0FFF797FA05464AE0FFF793FA0646C0
:1012900005E042E0FFF78EFA801B02283DD8206867
:1012A0008001F7D4D5E90701084347F6C07292FAE6
:1012B000A2F2696AB2FA82F29140AA6A4FF0FF3351
:1012C00003EB52024FF4403393FAA3F3B3FA83F3E0
:1012D0009A40114308434FF0706292FAA2F2E96A11
:1012E000B2FA82F29140084300E01CE0CBF8000023
:1012F000C7F860A0FFF75EFA054604E0FFF75AFA68
:10130000401B022809D820688001F7D50BE000BFF8
:10131000FFF750FA401B022802D90320BDE8F88FDE
:1013200020688001F4D40020F8E70120F6E70000EF
:101330000838024000004742800E474200700040DB
:101340004FF0E0210428086903D020F00400086170
:10135000704740F00400FAE710B5401EB0F1807FFE
:1013600001D3012010BD4FF0E02460610F21601710
:1013700000F06AFE0020A06107202061002010BD5F
:101380007047704730B590F83820012A19D00122F3
:1013900000F8382F02234370D1E900342343D1E908
:1013A00002452C4323430C6923434C698969234339
:1013B0000B4350F8381C4B64427000210170084602
:1013C00030BD022030BD30B590F83820012A20D041
:1013D000012280F83820022380F8393003685C68E5
:1013E00024F070045C6003685C680D682C435C60EA
:1013F00003689C6824F080049C6003689C684968CA
:101400000C439C6080F83920002180F83810084691
:1014100030BD022030BD10B5040003D094F839006F
:1014200010B107E0012010BD002084F838002046EC
:1014300000F00CF8022084F83900211D206800F02B
:10144000EBFE012084F83900002010BD70B506467F
:101450002B4A016800252B4886B091423BD1016898
:1014600041F0010101600068694600F0010005904B
:10147000501500900220CDE901050120CDE903506F
:101480002148FFF7B5F8224C2048C4E900050015B3
:10149000A560C4E90350400060618000C4E906050E
:1014A000256220466562FFF73BF808B1FEF763FF4F
:1014B00034627462B462002205211920A663FFF72A
:1014C0004DFC1920FFF73EFC002205211B20FFF7F1
:1014D00045FC1B2010E00F4A91420FD1016841F0FA
:1014E000020101600068002200F002000590114630
:1014F0002D20FFF733FC2D20FFF724FC06B070BD34
:10150000000001404438024000100240A064024044
:1015100064420020000401400168CA6842F00102F0
:10152000CA600068016841F0010101600020704755
:1015300070B5044690F83800012817D0012584F8CA
:101540003850022084F839002068826822F077023F
:1015500022F47F4282600868502837D00DDC2028B2
:1015600059D005DC88B3102841D151E0022070BD6C
:10157000302853D040283AD13FE060282ED0702840
:101580000BD0B0F5805F03D0B0F5005F2FD110E035
:101590002068816821F0070115E0CB68D1E90121BD
:1015A000206800F0A4FE2168886840F07700886019
:1015B0001DE0CB68D1E90121206800F098FE206889
:1015C000816841F48041816011E01EE0CA68496889
:1015D000206800F093FF5021206806E0CA6849683F
:1015E000206800F0DFFF6021206800F08AFE84F8A8
:1015F0003950002084F8380070BDCA6849682068F6
:1016000000F07CFF40212068EFE700212068ECE734
:1016100010212068E9E720212068E6E730212068D2
:10162000E3E770472DE9F041044690F838000D4695
:1016300001283DD0012684F83860022084F8390062
:10164000AAB3042A46D02068082A55D0D5E9002735
:10165000E968036A23F480530362D0F81CC0036A6C
:101660002CF4407C4CEA07274FF6FF7C27F47047A8
:101670000CEA013139434FF4204723F4204307EAB1
:1016800002321A43C16102622068C16921F44061DB
:10169000C1612068C169AA6841EA0221C0F81C1032
:1016A00084F83960002084F83800BDE8F08101E05A
:1016B0000220FAE7D5E90012EB68206800F030FF5D
:1016C0002068816921F00C01816120688169AA6824
:1016D00011430FE0D5E90012EB68206800F074FFB9
:1016E0002068816921F44061816120688169AA686C
:1016F00041EA02218161D3E7D5E9002C2F7B016A01
:1017000021F480710162C169036A21F0030141EA99
:101710000C0121F0F00C39074FF420674CEA1161FD
:1017200023F4206307EA02221A43C161026220689F
:10173000C16921F00C01C1612068C169AA68114327
:10174000ACE710B5040003D094F8390010B107E0FD
:10175000012010BD002084F83800204600F00CF86D
:10176000022084F83900211D206800F055FD012079
:1017700084F83900002010BD704710B50446006899
:10178000012200F0A9FD2068016841F0010101601B
:10179000002010BD70B50446006801694FF00005D7
:1017A000C943890715D4C168C943890711D4E91E03
:1017B000016101202076206880698007204602D0E0
:1017C000FFF72FFF04E000F0B3F8204600F035F9F2
:1017D000257620680169C943490717D4C168C94300
:1017E000490713D46FF004010161022020762068BC
:1017F000806910F4407F204602D0FFF712FF04E01A
:1018000000F096F8204600F018F925762068016966
:10181000C943090716D4C168C943090712D46FF038
:1018200008010161042020762068C06980072046F5
:1018300002D0FFF7F6FE04E000F07AF8204600F050
:10184000FCF8257620680169C943C90617D4C16828
:10185000C943C90613D46FF0100101610820207636
:101860002068C06910F4407F204602D0FFF7D9FEFF
:1018700004E000F05DF8204600F0DFF825762068EF
:101880000169C943C90708D1C168C943C90704D15F
:10189000891E0161204600F0EDF820680169C94306
:1018A000090609D4C168C943090605D46FF080014F
:1018B00001612046FFF764FD20680169C9434906BC
:1018C00009D4C168C943490605D46FF040010161DC
:1018D000204600F0FAF820680169C94389060BD454
:1018E000C168C943890607D46FF020010161204611
:1018F000BDE87040FFF745BD70BD000000B5006851
:10190000094985B088420CD1402000900220019006
:101910000020029003900320049069460348FEF7DC
:1019200067FE05B000BD0000000401400008024051
:10193000704770B5044690F838000D4601280DD068
:10194000012684F83860022084F8390042B1042A64
:1019500018D0082A2AD00C2A4DD139E0022070BDB7
:10196000206800F0D7FC2068816941F0080181619E
:101970002068816921F004018161206881692A69F8
:10198000114311E0206800F0F1FC2068816941F406
:10199000006181612068816921F480618161206832
:1019A00081692A6941EA0221816124E0206800F00E
:1019B0000FFD2068C16941F00801C1612068C1695B
:1019C00021F00401C1612068C1692A69114311E055
:1019D000206800F02DFD2068C16941F40061C161FB
:1019E0002068C16921F48061C1612068C1692A69E8
:1019F00041EA0221C16184F83960002084F838008E
:101A000070BD10B5040003D094F8390010B107E0A0
:101A1000012010BD002084F83800204600F00CF8AA
:101A2000022084F83900211D206800F0F5FB012018
:101A300084F83900002010BD7047704710B5044687
:101A40000068012200F048FC08492068884202D062
:101A50000749884203D1416C41F400414164206848
:101A6000016841F001010160002010BD000001404B
:101A70000004014000680349884201D1FFF7DAB849
:101A8000704700000020004070B5044690F8380010
:101A9000012818D0012584F83850022084F8390034
:101AA000204600F0EDFC2068C16821F04001C160D3
:101AB0002068C16821F48041C16084F83950002059
:101AC00084F8380070BD022070BD7047FEE70168E1
:101AD0004A69D24352050CD46FF480624A610421F2
:101AE0000164002140F8301F20224273017301205D
:101AF0007047002070472DE9F84F0446C06A1E4623
:101B000092460D4621680A6842F480620A60042801
:101B100007D0012805D010F5803F02D0206B112896
:101B200004D12068016841F4807101604FF0011810
:101B30005346002241462046009600F0BCF8B8BB50
:101B4000206908F10109B0F5804F12D00620216804
:101B500000EAD51747F0F00008613346524608F115
:101B60000701204600F0D8F838B1206C04282FD0A7
:101B70001EE0E8B240F001001FE02168E8B2086111
:101B8000334652464946204600F0C6F80028ECD1BC
:101B90002068416981690091016841F480710160A8
:101BA0005346002241462046009600F084F810B1CA
:101BB0000320BDE8F88F47F0F10021680861334643
:101BC00052464946204600F0A7F80028CDD1F0E75C
:101BD0000120EEE7F8B50446C06A1E460D461746DA
:101BE000042807D0012805D010F5803F02D0206BD3
:101BF000122804D12068016841F480710160134605
:101C000000224FF001112046009600F054F8A0B9D0
:101C10002069B0F5804F12D00620216800EAD51067
:101C200040F0F000086133463A460E49204600F085
:101C300073F838B1206C042811D00320F8BD05F0EA
:101C4000FE0000E0E8B221680861064933463A46E2
:101C5000891F204600F060F80028EBD1F8BD012074
:101C6000F8BD00000800010070B516460D46044698
:101C70001AE02046FFF72BFF08B1012070BD681C59
:101C800012D025B1FEF796FD801BA8420CD954F85E
:101C9000400F40F0200044F810090020206020216F
:101CA00061732073032070BD20684069C043400702
:101CB000DFD4002070BD2DE9F0471E4690460D464A
:101CC0000446C1F30747DDF8209012E0701C10D0E5
:101CD0002EB1FEF76FFDA0EB0900B04209D900203C
:101CE00044F8300F20216173A07320730320BDE8F6
:101CF000F0872068012F0AD0806925EA00000004DF
:101D0000000C06D000214145E0D00020EFE74069FB
:101D1000F3E70121F7E700002DE9F0479A469146E5
:101D20000D46044600264FF02008C1F307472AE07D
:101D300020684069C043400512D42068016841F41E
:101D40000071016021686FF48060486104202064A4
:101D5000266384F83D8084F83C600120BDE8F0876C
:101D6000B9F1FF3F0FD0B9F1000F05D0FEF722FD0A
:101D7000A0EB0A01494506D944F8306F84F80D807C
:101D800026730320EAE72068012F07D0D0F8180057
:101D900025EA00000004000CE0D0C9E74069F7E73D
:101DA0002DE9F041002590460E460446202721E00B
:101DB0004069C043C0060CD421686FF01000486130
:101DC0002564256384F83D7084F83C500120BDE80B
:101DD000F0812EB1FEF7EEFCA0EB0800B04209D96D
:101DE00054F8400F40F0200044F804096770257053
:101DF0000320ECE720684169C9434906D8D4002094
:101E0000E5E770B516460D4604461AE02046FFF792
:101E10005EFE08B1012070BD681C12D025B1FEF72E
:101E2000C9FC801BA8420CD954F8400F40F0200098
:101E300044F81009002020602021617320730320E2
:101E400070BD20684069C0430006DFD4002070BD2B
:101E5000F0B5264887B00024016841F01001016008
:101E6000016801F010010591016841F0080101606D
:101E7000016801F008010591016841F00401016069
:101E8000016801F004010591016841F00101016060
:101E9000016801F001010591016841F00201016052
:101EA0000068134E00F002004FF4704505900022C8
:101EB00029463046FEF778FC0E4F01222021384695
:101EC000FEF772FC00950125CDE9015469463046C4
:101ED0000394FEF78DFB20200090CDE90154694664
:101EE00038460394FEF784FB07B0F0BD303802405B
:101EF000000C02400004024030B527488FB025494D
:101F00000160A7210024C0E901144FF6FF71C0E968
:101F100003144461FFF77FFA00B1FEE74FF48050ED
:101F2000099009A91C48FFF703FB00B1FEE71A4816
:101F3000FFF707FC00B1FEE70420049002255020C3
:101F4000CDE90654059004A913480894FFF79CFDB9
:101F500000B1FEE701200095CDE9010400226946A9
:101F60000D480394FFF75EFB00B1FEE704226946CB
:101F70000948CDE90045FFF755FB00B1FEE70D9498
:101F80000DA905480E94FFF71EFA002800D0FEE7C1
:101F90000FB030BD00000140F03D002010B52848D2
:101FA00094B026490160A7210024C0E901144FF430
:101FB0007A71C0E903144461FFF72DFA00B1FEE71E
:101FC0004FF480500E900EA91D48FFF7B1FA00B1F2
:101FD000FEE71B48FFF715FD00B1FEE7129412A9BA
:101FE00017481394FFF7EFF900B1FEE76020009067
:101FF0004FF4FA70CDE901044FF48070CDE904404C
:102000000394002269460E480694FFF792FC00B143
:10201000FEE70794089409944FF400500A94CDE920
:102020000B4007A906480D94FFF7ACF900B1FEE795
:102030000348FFF763FC14B010BD0000000401402A
:102040002C3E0020FEE770470907090E002806DA3B
:1020500000F00F0000F1E02080F8141D704700F13F
:10206000E02080F800147047012000F0BFFBFBE780
:1020700000F0C8BB30B5254893B00025016841F099
:1020800080510160006800F0805011902048016884
:1020900041F4804101600068022400F48040119006
:1020A0000120039010200490009406940820CDE9AC
:1020B0000750A820CDE9090404200B906846FEF7DC
:1020C000B5FF00B1FEE70CA90F2081E831004FF405
:1020D000A0500F904FF48050109005210CA8FEF7EF
:1020E0006FFE00B1FEE7FEF749FF4FF47A71B0FBD7
:1020F000F1F0FFF731F90420FFF722F900220F2158
:10210000501EFEF72BFE13B030BD000040380240D9
:10211000007000401048016841F4700101600F48F0
:10212000016841F0010101600C4A00210832116090
:1021300002680B4B1A400260031D0A4A1A600268CB
:1021400022F48022026005480C30016002495806E2
:10215000803908607047000088ED00E000380240D8
:10216000FFFFF6FE1030002410B50948FFF712FB00
:1021700007480068826B0849064B087823F810204E
:10218000401CC0B20870442801D30020087010BD64
:10219000F03D0020664000206000002010B511488E
:1021A000FFF7F8FA10480068104C80B22080618870
:1021B000884214D0FF2812D04FF480510C48FEF70B
:1021C000EFFA0948FF230B4A0621001F00F0F8FC34
:1021D0000548FF23084A0621143000F0F1FC20884E
:1021E000608010BDF03D00202C640240680000209B
:1021F000000C0240683E00206640002010B50448F4
:10220000FFF7C8FABDE810400248FFF7C3BA000064
:102210002C3E0020603D0020F0B50268234B244D89
:10222000244E254F254C4FF0804C984209D06045F4
:1022300007D0A84205D0B04203D0B84201D0A04296
:1022400004D122F0700E4A6842EA0E0298421BD076
:10225000604519D0A84217D0B04215D0B84213D06B
:10226000A04211D0164DA8420ED0164DA8420BD058
:10227000154DA84208D0154DA84205D0144DA842CE
:1022800002D0144DA84203D122F44075CA682A43F3
:1022900002608A68C2620A688262984201D0A042E3
:1022A00001D10969016301214161F0BD00000140D4
:1022B0000004004000080040000C00400004014001
:1022C0000040014000440140004801400018004027
:1022D000001C00400020004010B50123046A8B4020
:1022E0009C430462036A8A401343036210BD10B525
:1022F000846842EA032224F47F440A432243826032
:1023000010BD826822F070020A4342F0070181602A
:102310007047000030B5026A22F001020262026AD0
:10232000436884690D6824F07304254322F0020495
:102330008A6822430B4CA04202D00B4CA0420BD126
:1023400022F00804CA6823F4407322434C6922F047
:1023500004021C438B6923434360856149684163E0
:10236000026230BD000001400004014030B5026A45
:1023700022F010020262026A436884690D6824F444
:10238000E64444EA05248D6822F0200242EA051260
:102390000D4DA84202D00D4DA8420ED1CD6822F0BD
:1023A000800242EA05124D6923F4406343EA850343
:1023B0008D6922F0400243EA8503436084614968E5
:1023C0008163026230BD0000000001400004014052
:1023D00030B5026A22F480720262036A4268C469FC
:1023E00023F4007324F073050C682C438D6843EAD2
:1023F00005230D4DA84202D00C4DA8420ED1CD6848
:1024000023F4006343EA05234D6922F4405242EA73
:1024100005128D6923F4806342EA05124260C461AB
:102420004968C163036230BD0000014000040140FF
:1024300030B5026A22F480520262046A4268C369BB
:102440000D6823F4E64343EA05238D6824F4005421
:1024500044EA0534084DA84202D0084DA84204D1F0
:102460004D6922F4804242EA85124260C3614968A4
:102470000164046230BD000000000140000401401E
:1024800030B403689A6822F070044A68224322F04C
:1024900007040A6822439A604A6812F00F0F1FD19E
:1024A0001211082A1CD2DFE802F01B1B1B1B0B1D9C
:1024B00023040B69D1E90221006830BCFFF717BF84
:1024C0000268136A146A24F00104146202689469B1
:1024D000096924F0F00444EA011191610068036283
:1024E00030BC70470A698968006830BC00F006B8E3
:1024F0000A698968006830BC00F054B810B5036AF6
:10250000046A24F001040462846924F0F00444EABB
:10251000021423F00A020A438461026210BD000023
:1025200070B5046A24F0010404628469056A164ED9
:10253000B04214D0B0F1804F11D0144EB0420ED042
:10254000134EB0420BD0134EB04208D0124EB042E0
:1025500005D0124EB04202D0114EB04203D124F049
:102560000304144303E024F0030242F001041A07B9
:1025700024F0F00444EA126225F00A0301F00A0193
:1025800019438261016270BD0000014000040040F7
:1025900000080040000C00400004014000400140E1
:1025A0000018004010B5036A23F01003036283692A
:1025B000046A23F4704343EA023224F0A00343EA9E
:1025C00001118261016210BD30B5046A24F010046B
:1025D00004628469056A24F4407444EA022222F405
:1025E00070444FF6FF7202EA03322243A02425F022
:1025F000A00304EA011119438261016230BDFEE7C4
:1026000002E008C8121F08C1002AFAD170477047BB
:10261000002001E001C1121F002AFBD170470268AF
:1026200022F000720260026822F08062026002689A
:1026300022F000620260082916D2DFE801F01504DA
:10264000080C11161A1F016841F000710BE00168B7
:1026500041F0806107E0016841F000710160F6E738
:10266000016841F0006101607047016841F000714C
:1026700002E0016841F080610160F1E7016841F02A
:1026800000710160F5E700008CB0FEF7DBFAFFF7A0
:10269000F1FCFFF7DDFB49480024016841F48001AB
:1026A00001600068224600F480000090052145206A
:1026B000FEF754FB4520FEF745FB424840490160C8
:1026C0004149C0E901145821C1604FF48041C0E97B
:1026D00004148461C4610462FEF772F800B1FEE77D
:1026E000FFF70AFCFFF75AFC1422384906A8FDF749
:1026F000C5FD002106A800F08FF83549314A486031
:10270000CC320C7002F5FF75087822F8104025F8DD
:102710001040401CC0B20870FF28F5D30C70FF2792
:10272000CDE900272C4E062301222A49304600F02D
:10273000D7F92849CDE9005706230222183130463F
:1027400000F0CEF91F4800219030FFF777F91D48BF
:1027500000215430FFF711F81A4804215430FFF7D4
:102760000CF8F06840F00100F06018208DF80800C7
:102770008DF809408DF80040184C00222021204699
:10278000FEF712F8012220212046FEF70DF84FF443
:102790007A74022302AA58210A480094FEF788F9A5
:1027A0008DF80000012302AA582106480094FEF784
:1027B0008BF88DF8000000F020F8FEE7303802407A
:1027C000005400409C3D0020A08601004C330008CE
:1027D0006000002028640240000001400004024024
:1027E00001460020842900D0C81C704710B500B9EC
:1027F000012000F0C7FA002010BD10B500F0F6FA75
:10280000002010BD10B500F0BFFC012803D0BDE8CA
:10281000104000F0C5BB10BD30B5044685B00D4674
:10282000B0F90800FFF7DCFF002104AA0090CDE911
:1028300001210391208A2B4682B2D4E9001000F0D6
:10284000C5FB012802D0002005B030BD0498FBE78D
:1028500070B50B4C054620684560E06821688542EC
:1028600005D2606BBDE87040091D00F0F5B9206B22
:10287000091D00F0F1F9A06A854200D2A56270BD81
:102880000000002070B5124E124C1AE000F0E2FA7F
:102890003068D0B100F0ECFC00F002FAF068C568D6
:1028A000281D00F0B9F9A068401EA0606068401EB5
:1028B000606000F015FA286B00F026FA284600F058
:1028C00023FA60680028E1D170BD00F0D1FCF8E780
:1028D000380100200000002010484FF470514207DA
:1028E00006D0C01D0D4920F00700411AC1F57051F6
:1028F0000B4A00230144C2E900030839103A21F0D1
:10290000070111604B600B600B1AC0E90013936064
:102910004FF000405360D06070470000600100201D
:1029200054000020074C4FF08056074DFFF7AAFFD8
:1029300020680128FAD92E60BFF34F8FBFF36F8F45
:10294000F4E700007000002004ED00E030B511490C
:1029500000E011460A688242FBD34B685C1884424F
:1029600003D1406818444860084643681C189442E4
:1029700009D1084C103C2468A24209D052681A447C
:1029800042600A6812680260814200D0086030BD6F
:102990000460F9E7540000200648016B096829B17A
:1029A000016BC968C9684968816270474FF0FF319F
:1029B000FAE700000000002008484068401C4FF083
:1029C000500080F3118804D0BFF34F8FBFF36F8F97
:1029D000FEE7BFF34F8FBFF36F8FFEE73800002095
:1029E0002DE9F0410546002700F034FA314E3068F9
:1029F00008B9FFF771FFF06805424BD1C5B3083540
:102A000068070ED005F00700C0F10800054468070C
:102A100007D0502080F31188BFF34F8FBFF36F8F23
:102A2000FEE72DB37068854234D822481030014645
:102A30000C6801E020460C466168A94202D2216878
:102A40000029F7D131688C4224D0076821680160E1
:102A500060680837411B10290FD96019420708D058
:102A6000502080F31188BFF34F8FBFF36F8FFEE7C5
:102A700010E041606560FFF769FF61687068401AA7
:102A80007060B268904200D2B060F06801430020EC
:102A9000C4E9000100F0ECFB780707D0502080F378
:102AA0001188BFF34F8FBFF36F8FFEE73846BDE845
:102AB000F08100004400002010B5031F4FF0807427
:102AC0001C601B1F1960191F044B0B6014390A602E
:102AD000091F6FF0020244380A6010BDB9290008CE
:102AE000F8B5044635489C460D46DDE906370168D1
:102AF000164641F400110160016801F400110091D3
:102B0000016841F4800101600068614600F48000C2
:102B100000902846FFF783FD286820F00100286018
:102B2000286840F400502860286840F4006028605D
:102B3000286840F480602860286840F400602860BD
:102B40006F60EB60012E06D0022E07D0032E19D045
:102B5000042E06D119E004F1340001E004F138003C
:102B6000A860286840F001002860206820F001007B
:102B70002060012E0CD0022E0ED0032E15D0042E74
:102B80000ED116E004F13C00EAE704F14000E7E76B
:102B9000E06840F4007002E0E06840F48060E060CB
:0E2BA000206840F001002060F8BDE06840F4BD
:00000001FF
